{
  "contractName": "TodoList",
  "abi": [
    {
      "inputs": [],
      "stateMutability": "nonpayable",
      "type": "constructor"
    },
    {
      "inputs": [],
      "name": "taskCount",
      "outputs": [
        {
          "internalType": "uint256",
          "name": "",
          "type": "uint256"
        }
      ],
      "stateMutability": "view",
      "type": "function",
      "constant": true
    },
    {
      "inputs": [
        {
          "internalType": "uint256",
          "name": "",
          "type": "uint256"
        }
      ],
      "name": "tasks",
      "outputs": [
        {
          "internalType": "uint256",
          "name": "id",
          "type": "uint256"
        },
        {
          "internalType": "string",
          "name": "content",
          "type": "string"
        },
        {
          "internalType": "bool",
          "name": "completed",
          "type": "bool"
        }
      ],
      "stateMutability": "view",
      "type": "function",
      "constant": true
    },
    {
      "inputs": [
        {
          "internalType": "uint256",
          "name": "_id",
          "type": "uint256"
        }
      ],
      "name": "getTask",
      "outputs": [
        {
          "internalType": "uint256",
          "name": "id",
          "type": "uint256"
        },
        {
          "internalType": "string",
          "name": "content",
          "type": "string"
        },
        {
          "internalType": "bool",
          "name": "completed",
          "type": "bool"
        }
      ],
      "stateMutability": "view",
      "type": "function",
      "constant": true
    },
    {
      "inputs": [
        {
          "internalType": "string",
          "name": "_content",
          "type": "string"
        }
      ],
      "name": "createTask",
      "outputs": [],
      "stateMutability": "nonpayable",
      "type": "function"
    }
  ],
  "bytecode": "0x60806040526000805534801561001457600080fd5b506100596040518060400160405280601c81526020017f436865636b206f75742064617070756e69766572736974792e636f6d0000000081525061005e60201b60201c565b61027c565b600080815480929190610070906101d2565b9190505550604051806060016040528060005481526020018281526020016000151581525060016000805481526020019081526020016000206000820151816000015560208201518160010190805190602001906100cf9291906100f6565b5060408201518160020160006101000a81548160ff02191690831515021790555090505050565b8280546101029061024a565b90600052602060002090601f016020900481019282610124576000855561016b565b82601f1061013d57805160ff191683800117855561016b565b8280016001018555821561016b579182015b8281111561016a57825182559160200191906001019061014f565b5b509050610178919061017c565b5090565b5b8082111561019557600081600090555060010161017d565b5090565b7f4e487b7100000000000000000000000000000000000000000000000000000000600052601160045260246000fd5b6000819050919050565b60006101dd826101c8565b91507fffffffffffffffffffffffffffffffffffffffffffffffffffffffffffffffff8214156102105761020f610199565b5b600182019050919050565b7f4e487b7100000000000000000000000000000000000000000000000000000000600052602260045260246000fd5b6000600282049050600182168061026257607f821691505b602082108114156102765761027561021b565b5b50919050565b61080a8061028b6000396000f3fe608060405234801561001057600080fd5b506004361061004c5760003560e01c8063111002aa146100515780631d65e77e1461006d5780638d9776721461009f578063b6cb58a5146100d1575b600080fd5b61006b60048036038101906100669190610544565b6100ef565b005b610087600480360381019061008291906105c3565b610187565b604051610096939291906106a2565b60405180910390f35b6100b960048036038101906100b491906105c3565b610282565b6040516100c8939291906106a2565b60405180910390f35b6100d9610341565b6040516100e691906106e0565b60405180910390f35b6000808154809291906101019061072a565b919050555060405180606001604052806000548152602001828152602001600015158152506001600080548152602001908152602001600020600082015181600001556020820151816001019080519060200190610160929190610347565b5060408201518160020160006101000a81548160ff02191690831515021790555090505050565b6000606060008060016000868152602001908152602001600020604051806060016040529081600082015481526020016001820180546101c6906107a2565b80601f01602080910402602001604051908101604052809291908181526020018280546101f2906107a2565b801561023f5780601f106102145761010080835404028352916020019161023f565b820191906000526020600020905b81548152906001019060200180831161022257829003601f168201915b505050505081526020016002820160009054906101000a900460ff1615151515815250509050806000015181602001518260400151935093509350509193909250565b60016020528060005260406000206000915090508060000154908060010180546102ab906107a2565b80601f01602080910402602001604051908101604052809291908181526020018280546102d7906107a2565b80156103245780601f106102f957610100808354040283529160200191610324565b820191906000526020600020905b81548152906001019060200180831161030757829003601f168201915b5050505050908060020160009054906101000a900460ff16905083565b60005481565b828054610353906107a2565b90600052602060002090601f01602090048101928261037557600085556103bc565b82601f1061038e57805160ff19168380011785556103bc565b828001600101855582156103bc579182015b828111156103bb5782518255916020019190600101906103a0565b5b5090506103c991906103cd565b5090565b5b808211156103e65760008160009055506001016103ce565b5090565b6000604051905090565b600080fd5b600080fd5b600080fd5b600080fd5b6000601f19601f8301169050919050565b7f4e487b7100000000000000000000000000000000000000000000000000000000600052604160045260246000fd5b61045182610408565b810181811067ffffffffffffffff821117156104705761046f610419565b5b80604052505050565b60006104836103ea565b905061048f8282610448565b919050565b600067ffffffffffffffff8211156104af576104ae610419565b5b6104b882610408565b9050602081019050919050565b82818337600083830152505050565b60006104e76104e284610494565b610479565b90508281526020810184848401111561050357610502610403565b5b61050e8482856104c5565b509392505050565b600082601f83011261052b5761052a6103fe565b5b813561053b8482602086016104d4565b91505092915050565b60006020828403121561055a576105596103f4565b5b600082013567ffffffffffffffff811115610578576105776103f9565b5b61058484828501610516565b91505092915050565b6000819050919050565b6105a08161058d565b81146105ab57600080fd5b50565b6000813590506105bd81610597565b92915050565b6000602082840312156105d9576105d86103f4565b5b60006105e7848285016105ae565b91505092915050565b6105f98161058d565b82525050565b600081519050919050565b600082825260208201905092915050565b60005b8381101561063957808201518184015260208101905061061e565b83811115610648576000848401525b50505050565b6000610659826105ff565b610663818561060a565b935061067381856020860161061b565b61067c81610408565b840191505092915050565b60008115159050919050565b61069c81610687565b82525050565b60006060820190506106b760008301866105f0565b81810360208301526106c9818561064e565b90506106d86040830184610693565b949350505050565b60006020820190506106f560008301846105f0565b92915050565b7f4e487b7100000000000000000000000000000000000000000000000000000000600052601160045260246000fd5b60006107358261058d565b91507fffffffffffffffffffffffffffffffffffffffffffffffffffffffffffffffff821415610768576107676106fb565b5b600182019050919050565b7f4e487b7100000000000000000000000000000000000000000000000000000000600052602260045260246000fd5b600060028204905060018216806107ba57607f821691505b602082108114156107ce576107cd610773565b5b5091905056fea2646970667358221220e61f20ef8278c80979cdb851726efc8d34515d5c8ebfe554da759a7701af64fc64736f6c634300080a0033",
  "immutableReferences": {},
  "source": "// SPDX-License-Identifier: GPL-3.0\r\n\r\npragma solidity ^0.8.10;\r\n\r\ncontract TodoList {\r\n  uint256 public taskCount = 0;\r\n\r\n  struct Task {\r\n    uint256 id;\r\n    string content;\r\n    bool completed;\r\n  }\r\n\r\n  mapping(uint256 => Task) public tasks;\r\n\r\n  constructor() {\r\n    createTask('Check out dappuniversity.com');\r\n  }\r\n\r\n  function getTask(uint256 _id)\r\n    public\r\n    view\r\n    returns (\r\n      uint256 id,\r\n      string memory content,\r\n      bool completed\r\n    )\r\n  {\r\n    Task memory task = tasks[_id];\r\n    return (task.id, task.content, task.completed);\r\n  }\r\n\r\n  function createTask(string memory _content) public {\r\n    taskCount++;\r\n    tasks[taskCount] = Task(taskCount, _content, false);\r\n  }\r\n}\r\n",
  "sourcePath": "D:\\code\\Javascript\\Web3\\Dapp University\\todo-list\\contracts\\TodoList.sol",
  "compiler": {
    "name": "solc",
    "version": "0.8.10+commit.fc410830.Emscripten.clang"
  },
  "schemaVersion": "3.4.3",
  "updatedAt": "2021-11-20T12:37:16.626Z",
  "networkType": "ethereum",
  "devdoc": {
    "kind": "dev",
    "methods": {},
    "version": 1
  },
  "userdoc": {
    "kind": "user",
    "methods": {},
    "version": 1
  }
}